{
  "_format": "hh-sol-artifact-1",
  "contractName": "DesupTokenVesting",
  "sourceName": "contracts/DesupTokenVesting.sol",
  "abi": [
    {
      "inputs": [
        {
          "internalType": "address",
          "name": "token_",
          "type": "address"
        }
      ],
      "stateMutability": "nonpayable",
      "type": "constructor"
    },
    {
      "anonymous": false,
      "inputs": [
        {
          "indexed": false,
          "internalType": "address",
          "name": "investor",
          "type": "address"
        },
        {
          "indexed": false,
          "internalType": "uint256",
          "name": "amount",
          "type": "uint256"
        }
      ],
      "name": "InvestWithEther",
      "type": "event"
    },
    {
      "anonymous": false,
      "inputs": [
        {
          "indexed": false,
          "internalType": "address",
          "name": "investor",
          "type": "address"
        },
        {
          "indexed": false,
          "internalType": "uint256",
          "name": "amount",
          "type": "uint256"
        }
      ],
      "name": "InvestWithUSDT",
      "type": "event"
    },
    {
      "anonymous": false,
      "inputs": [
        {
          "indexed": true,
          "internalType": "address",
          "name": "previousOwner",
          "type": "address"
        },
        {
          "indexed": true,
          "internalType": "address",
          "name": "newOwner",
          "type": "address"
        }
      ],
      "name": "OwnershipTransferred",
      "type": "event"
    },
    {
      "anonymous": false,
      "inputs": [
        {
          "indexed": false,
          "internalType": "uint256",
          "name": "published_epoch",
          "type": "uint256"
        }
      ],
      "name": "PublishToken",
      "type": "event"
    },
    {
      "anonymous": false,
      "inputs": [
        {
          "indexed": false,
          "internalType": "uint16",
          "name": "decimal",
          "type": "uint16"
        }
      ],
      "name": "SetPriceDecimal",
      "type": "event"
    },
    {
      "anonymous": false,
      "inputs": [
        {
          "indexed": false,
          "internalType": "uint16",
          "name": "price",
          "type": "uint16"
        }
      ],
      "name": "SetTokenPriceForPublic",
      "type": "event"
    },
    {
      "anonymous": false,
      "inputs": [
        {
          "indexed": false,
          "internalType": "uint16",
          "name": "price",
          "type": "uint16"
        }
      ],
      "name": "SetTokenPriceForSeedA",
      "type": "event"
    },
    {
      "anonymous": false,
      "inputs": [
        {
          "indexed": false,
          "internalType": "enum DesupTokenVesting.HOLDERTYPE",
          "name": "role",
          "type": "uint8"
        },
        {
          "indexed": false,
          "internalType": "uint256",
          "name": "_duration",
          "type": "uint256"
        },
        {
          "indexed": false,
          "internalType": "uint256",
          "name": "_percentage",
          "type": "uint256"
        }
      ],
      "name": "SetVestingSchedule",
      "type": "event"
    },
    {
      "anonymous": false,
      "inputs": [
        {
          "indexed": false,
          "internalType": "address",
          "name": "holder",
          "type": "address"
        },
        {
          "indexed": false,
          "internalType": "uint256",
          "name": "amount",
          "type": "uint256"
        }
      ],
      "name": "Withdraw",
      "type": "event"
    },
    {
      "inputs": [],
      "name": "TokenUSDT",
      "outputs": [
        {
          "internalType": "contract IERC20",
          "name": "",
          "type": "address"
        }
      ],
      "stateMutability": "view",
      "type": "function"
    },
    {
      "inputs": [
        {
          "internalType": "address",
          "name": "holder_address",
          "type": "address"
        },
        {
          "internalType": "uint16",
          "name": "index",
          "type": "uint16"
        }
      ],
      "name": "getAllowedAmount",
      "outputs": [
        {
          "internalType": "uint256",
          "name": "",
          "type": "uint256"
        }
      ],
      "stateMutability": "view",
      "type": "function"
    },
    {
      "inputs": [
        {
          "internalType": "uint256",
          "name": "amount",
          "type": "uint256"
        },
        {
          "internalType": "uint16",
          "name": "token_price",
          "type": "uint16"
        }
      ],
      "name": "getDesupTokenAmount",
      "outputs": [
        {
          "internalType": "uint256",
          "name": "",
          "type": "uint256"
        }
      ],
      "stateMutability": "view",
      "type": "function"
    },
    {
      "inputs": [
        {
          "internalType": "address",
          "name": "holder_address",
          "type": "address"
        }
      ],
      "name": "getInvestorHistory",
      "outputs": [
        {
          "components": [
            {
              "internalType": "uint256",
              "name": "purchase_date",
              "type": "uint256"
            },
            {
              "internalType": "uint256",
              "name": "purchased_amount",
              "type": "uint256"
            },
            {
              "internalType": "uint256",
              "name": "withdrawed_amount",
              "type": "uint256"
            }
          ],
          "internalType": "struct DesupTokenVesting.History[]",
          "name": "",
          "type": "tuple[]"
        }
      ],
      "stateMutability": "view",
      "type": "function"
    },
    {
      "inputs": [],
      "name": "getLatestPrice",
      "outputs": [
        {
          "internalType": "uint256",
          "name": "",
          "type": "uint256"
        }
      ],
      "stateMutability": "view",
      "type": "function"
    },
    {
      "inputs": [
        {
          "internalType": "address",
          "name": "holder_address",
          "type": "address"
        }
      ],
      "name": "getTotalAmount",
      "outputs": [
        {
          "internalType": "uint256",
          "name": "",
          "type": "uint256"
        }
      ],
      "stateMutability": "view",
      "type": "function"
    },
    {
      "inputs": [],
      "name": "getTotalMintedDesupTokenAmount",
      "outputs": [
        {
          "internalType": "uint256",
          "name": "",
          "type": "uint256"
        }
      ],
      "stateMutability": "view",
      "type": "function"
    },
    {
      "inputs": [
        {
          "internalType": "uint256",
          "name": "amount",
          "type": "uint256"
        }
      ],
      "name": "getUSDFromEther",
      "outputs": [
        {
          "internalType": "uint256",
          "name": "",
          "type": "uint256"
        }
      ],
      "stateMutability": "view",
      "type": "function"
    },
    {
      "inputs": [
        {
          "internalType": "enum DesupTokenVesting.HOLDERTYPE",
          "name": "role",
          "type": "uint8"
        }
      ],
      "name": "getVestingSchedule",
      "outputs": [
        {
          "components": [
            {
              "internalType": "uint256",
              "name": "duration",
              "type": "uint256"
            },
            {
              "internalType": "uint256",
              "name": "init_percentage",
              "type": "uint256"
            }
          ],
          "internalType": "struct DesupTokenVesting.VestingSchedule",
          "name": "",
          "type": "tuple"
        }
      ],
      "stateMutability": "view",
      "type": "function"
    },
    {
      "inputs": [
        {
          "internalType": "address",
          "name": "holder_address",
          "type": "address"
        }
      ],
      "name": "getWithdrawableAmount",
      "outputs": [
        {
          "internalType": "uint256[]",
          "name": "withdrawble_amount",
          "type": "uint256[]"
        }
      ],
      "stateMutability": "view",
      "type": "function"
    },
    {
      "inputs": [
        {
          "internalType": "address",
          "name": "holder_address",
          "type": "address"
        },
        {
          "internalType": "uint16",
          "name": "index",
          "type": "uint16"
        }
      ],
      "name": "getWithdrawedAmount",
      "outputs": [
        {
          "internalType": "uint256",
          "name": "",
          "type": "uint256"
        }
      ],
      "stateMutability": "view",
      "type": "function"
    },
    {
      "inputs": [],
      "name": "harvestAll",
      "outputs": [],
      "stateMutability": "nonpayable",
      "type": "function"
    },
    {
      "inputs": [
        {
          "internalType": "uint256",
          "name": "",
          "type": "uint256"
        }
      ],
      "name": "holder_lists",
      "outputs": [
        {
          "internalType": "address",
          "name": "",
          "type": "address"
        }
      ],
      "stateMutability": "view",
      "type": "function"
    },
    {
      "inputs": [
        {
          "internalType": "address",
          "name": "",
          "type": "address"
        }
      ],
      "name": "holders",
      "outputs": [
        {
          "internalType": "enum DesupTokenVesting.HOLDERTYPE",
          "name": "role",
          "type": "uint8"
        }
      ],
      "stateMutability": "view",
      "type": "function"
    },
    {
      "inputs": [],
      "name": "investWithEther",
      "outputs": [],
      "stateMutability": "payable",
      "type": "function"
    },
    {
      "inputs": [
        {
          "internalType": "uint256",
          "name": "amount",
          "type": "uint256"
        }
      ],
      "name": "investWithUSDT",
      "outputs": [],
      "stateMutability": "nonpayable",
      "type": "function"
    },
    {
      "inputs": [
        {
          "internalType": "address",
          "name": "holder",
          "type": "address"
        }
      ],
      "name": "isInHolderlists",
      "outputs": [
        {
          "internalType": "bool",
          "name": "",
          "type": "bool"
        }
      ],
      "stateMutability": "view",
      "type": "function"
    },
    {
      "inputs": [],
      "name": "owner",
      "outputs": [
        {
          "internalType": "address",
          "name": "",
          "type": "address"
        }
      ],
      "stateMutability": "view",
      "type": "function"
    },
    {
      "inputs": [],
      "name": "price_decimal",
      "outputs": [
        {
          "internalType": "uint8",
          "name": "",
          "type": "uint8"
        }
      ],
      "stateMutability": "view",
      "type": "function"
    },
    {
      "inputs": [],
      "name": "publishToken",
      "outputs": [],
      "stateMutability": "nonpayable",
      "type": "function"
    },
    {
      "inputs": [],
      "name": "published_date",
      "outputs": [
        {
          "internalType": "uint256",
          "name": "",
          "type": "uint256"
        }
      ],
      "stateMutability": "view",
      "type": "function"
    },
    {
      "inputs": [],
      "name": "renounceOwnership",
      "outputs": [],
      "stateMutability": "nonpayable",
      "type": "function"
    },
    {
      "inputs": [
        {
          "internalType": "uint8",
          "name": "decimal",
          "type": "uint8"
        }
      ],
      "name": "setPriceDecimal",
      "outputs": [],
      "stateMutability": "nonpayable",
      "type": "function"
    },
    {
      "inputs": [
        {
          "internalType": "uint16",
          "name": "price",
          "type": "uint16"
        }
      ],
      "name": "setTokenPriceForPublic",
      "outputs": [],
      "stateMutability": "nonpayable",
      "type": "function"
    },
    {
      "inputs": [
        {
          "internalType": "uint16",
          "name": "price",
          "type": "uint16"
        }
      ],
      "name": "setTokenPriceForSeedA",
      "outputs": [],
      "stateMutability": "nonpayable",
      "type": "function"
    },
    {
      "inputs": [
        {
          "internalType": "enum DesupTokenVesting.HOLDERTYPE",
          "name": "role",
          "type": "uint8"
        },
        {
          "internalType": "uint256",
          "name": "_duration",
          "type": "uint256"
        },
        {
          "internalType": "uint256",
          "name": "_percentage",
          "type": "uint256"
        }
      ],
      "name": "setVestingSchedule",
      "outputs": [],
      "stateMutability": "nonpayable",
      "type": "function"
    },
    {
      "inputs": [],
      "name": "token_price_for_public",
      "outputs": [
        {
          "internalType": "uint16",
          "name": "",
          "type": "uint16"
        }
      ],
      "stateMutability": "view",
      "type": "function"
    },
    {
      "inputs": [],
      "name": "token_price_for_seedA",
      "outputs": [
        {
          "internalType": "uint16",
          "name": "",
          "type": "uint16"
        }
      ],
      "stateMutability": "view",
      "type": "function"
    },
    {
      "inputs": [],
      "name": "token_published",
      "outputs": [
        {
          "internalType": "bool",
          "name": "",
          "type": "bool"
        }
      ],
      "stateMutability": "view",
      "type": "function"
    },
    {
      "inputs": [
        {
          "internalType": "address",
          "name": "newOwner",
          "type": "address"
        }
      ],
      "name": "transferOwnership",
      "outputs": [],
      "stateMutability": "nonpayable",
      "type": "function"
    },
    {
      "inputs": [
        {
          "internalType": "enum DesupTokenVesting.HOLDERTYPE",
          "name": "",
          "type": "uint8"
        }
      ],
      "name": "vesting_schedules",
      "outputs": [
        {
          "internalType": "uint256",
          "name": "duration",
          "type": "uint256"
        },
        {
          "internalType": "uint256",
          "name": "init_percentage",
          "type": "uint256"
        }
      ],
      "stateMutability": "view",
      "type": "function"
    },
    {
      "inputs": [
        {
          "internalType": "uint256",
          "name": "amount",
          "type": "uint256"
        },
        {
          "internalType": "uint16",
          "name": "index",
          "type": "uint16"
        }
      ],
      "name": "withdraw",
      "outputs": [],
      "stateMutability": "nonpayable",
      "type": "function"
    }
  ],
  "bytecode": "0x60c06040523480156200001157600080fd5b50604051620021e9380380620021e9833981016040819052620000349162000124565b6200003f33620000d4565b600180556001600160a01b0381166200005757600080fd5b600380546001600160a01b0390921660805273dac17f958d2ee523a2206206994597c13d831ec760a0526001600160a81b031990911673d4a33860578de61dbabdc8bfdb98fd742fa7028e179055600580546406177008ca64ffffffffff19909116179055600280546001600160a01b0319163317905562000156565b600080546001600160a01b038381166001600160a01b0319831681178455604051919092169283917f8be0079c531659141344cd1fd0a4f28419497f9722a3daafe3b4186f6b6457e09190a35050565b6000602082840312156200013757600080fd5b81516001600160a01b03811681146200014f57600080fd5b9392505050565b60805160a05161206662000183600039600081816102a20152610d7f01526000610b1401526120666000f3fe6080604052600436106101e35760003560e01c806384aac409116101025780639facbdf511610095578063d8b4a5a311610064578063d8b4a5a3146105ca578063e1658e72146105ea578063f2fde38b14610633578063f67771751461065357600080fd5b80639facbdf51461054e578063a6d8cc261461056e578063c0f310de146105a2578063d53dfc37146105aa57600080fd5b80638ed955b9116100d15780638ed955b9146104c75780639b4a7bb7146104dc5780639b9f0ef41461050d5780639f194af11461052d57600080fd5b806384aac4091461045457806387dc9f28146104745780638da5cb5b146104945780638e15f473146104b257600080fd5b806351b27c851161017a578063656774551161014957806365677455146103ea5780637119f0981461040a578063715018a61461041f5780638251e3c21461043457600080fd5b806351b27c8514610364578063586b0e22146103865780635f7e219a146103a657806363b71039146103d457600080fd5b806332f1be29116101b657806332f1be291461029057806336a6da1f146102dc57806337e3a5b2146102fc5780634d823d5e1461033757600080fd5b80630e13b9bd146101e857806318a5bbdc1461021b57806326dce35c1461025b5780632c03c7d71461027b575b600080fd5b3480156101f457600080fd5b50610208610203366004611b66565b610680565b6040519081526020015b60405180910390f35b34801561022757600080fd5b5061024e610236366004611b66565b60076020526000908152604090206001015460ff1681565b6040516102129190611bb9565b34801561026757600080fd5b50610208610276366004611bd9565b610710565b34801561028757600080fd5b506102086107aa565b34801561029c57600080fd5b506102c47f000000000000000000000000000000000000000000000000000000000000000081565b6040516001600160a01b039091168152602001610212565b3480156102e857600080fd5b506102086102f7366004611c0c565b6108ab565b34801561030857600080fd5b5061031c610317366004611c3e565b6108f4565b60408051825181526020928301519281019290925201610212565b34801561034357600080fd5b50610357610352366004611b66565b610963565b6040516102129190611c59565b34801561037057600080fd5b5061038461037f366004611c0c565b610a3d565b005b34801561039257600080fd5b506103846103a1366004611cb2565b610c55565b3480156103b257600080fd5b506005546103c19061ffff1681565b60405161ffff9091168152602001610212565b3480156103e057600080fd5b5061020860045481565b3480156103f657600080fd5b50610384610405366004611cb2565b610cb2565b34801561041657600080fd5b50610384610cfe565b34801561042b57600080fd5b50610384610d5b565b34801561044057600080fd5b5061038461044f366004611ccd565b610d6f565b34801561046057600080fd5b5061038461046f366004611ce6565b610fd6565b34801561048057600080fd5b5061038461048f366004611d19565b6110cc565b3480156104a057600080fd5b506000546001600160a01b03166102c4565b3480156104be57600080fd5b50610208611124565b3480156104d357600080fd5b506103846111a9565b3480156104e857600080fd5b506003546104fd90600160a01b900460ff1681565b6040519015158152602001610212565b34801561051957600080fd5b506104fd610528366004611b66565b61124a565b34801561053957600080fd5b506005546103c19062010000900461ffff1681565b34801561055a57600080fd5b50610208610569366004611ccd565b6112ac565b34801561057a57600080fd5b5060055461059090640100000000900460ff1681565b60405160ff9091168152602001610212565b6103846112cc565b3480156105b657600080fd5b506102c46105c5366004611ccd565b6113ff565b3480156105d657600080fd5b506102086105e5366004611bd9565b611429565b3480156105f657600080fd5b5061061e610605366004611c3e565b6006602052600090815260409020805460019091015482565b60408051928352602083019190915201610212565b34801561063f57600080fd5b5061038461064e366004611b66565b611786565b34801561065f57600080fd5b5061067361066e366004611b66565b6117fc565b6040516102129190611d3c565b60008060005b6001600160a01b03841660009081526007602052604090205461ffff82161015610709576001600160a01b0384166000908152600760205260409020805461ffff83169081106106d8576106d8611d80565b906000526020600020906003020160000154826106f59190611dac565b91508061070181611dc4565b915050610686565b5092915050565b600061071b8361124a565b6107615760405162461bcd60e51b81526020600482015260126024820152712737ba1030903a37b5b2b7103437b63232b960711b60448201526064015b60405180910390fd5b6001600160a01b0383166000908152600760205260409020805461ffff841690811061078f5761078f611d80565b90600052602060002090600302016002015490505b92915050565b60008060005b60085461ffff821610156108a55760005b6007600060088461ffff16815481106107dc576107dc611d80565b60009182526020808320909101546001600160a01b0316835282019290925260400190205461ffff82161015610892576007600060088461ffff168154811061082757610827611d80565b60009182526020808320909101546001600160a01b031683528201929092526040019020805461ffff831690811061086157610861611d80565b9060005260206000209060030201600101548361087e9190611dac565b92508061088a81611dc4565b9150506107c1565b508061089d81611dc4565b9150506107b0565b50919050565b6005546000906108ed906108cb90640100000000900460ff166008611de6565b6108d690600a611eed565b6108e78461ffff166108e7876112ac565b906119b8565b9392505050565b60408051808201909152600080825260208201526006600083600281111561091e5761091e611b81565b600281111561092f5761092f611b81565b8152602001908152602001600020604051806040016040529081600082015481526020016001820154815250509050919050565b606061096e8261124a565b6109af5760405162461bcd60e51b81526020600482015260126024820152712737ba1030903a37b5b2b7103437b63232b960711b6044820152606401610758565b6001600160a01b038216600090815260076020908152604080832080548251818502810185019093528083529193909284015b82821015610a3257838290600052602060002090600302016040518060600160405290816000820154815260200160018201548152602001600282015481525050815260200190600101906109e2565b505050509050919050565b6000610a483361124a565b905080610a975760405162461bcd60e51b815260206004820152601960248201527f4f6e6c7920686f6c646572732063616e207769746864726177000000000000006044820152606401610758565b6000610aa2336117fc565b8361ffff1681518110610ab757610ab7611d80565b6020026020010151905080841115610b075760405162461bcd60e51b81526020600482015260136024820152722bb4ba34323930bb903634b6b4ba30ba34b7b760691b6044820152606401610758565b6002546001600160a01b037f00000000000000000000000000000000000000000000000000000000000000008116916323b872dd911633610b5088670de0b6b3a76400006119c4565b6040516001600160e01b031960e086901b1681526001600160a01b03938416600482015292909116602483015260448201526064016020604051808303816000875af1158015610ba4573d6000803e3d6000fd5b505050506040513d601f19601f82011682018060405250810190610bc89190611efc565b50336000908152600760205260409020805485919061ffff8616908110610bf157610bf1611d80565b90600052602060002090600302016002016000828254610c119190611dac565b909155505060408051338152602081018690527f884edad9ce6fa2440d8a54cc123490eb96d2768479d49ff9c7366125a9424364910160405180910390a150505050565b610c5d6119d0565b6005805463ffff000019166201000061ffff8416908102919091179091556040519081527f892e017da0a1ce5499f80898ce472d68bcada9d103674edba28d5faa5e69357f906020015b60405180910390a150565b610cba6119d0565b6005805461ffff191661ffff83169081179091556040519081527fa3a56ab461f72ca2f638c114e51432b8b04c9c48f4033d551ece6255749792a690602001610ca7565b610d066119d0565b4260048190556003805460ff60a01b1916600160a01b1790556040517f7ad7b61f410a38223b0b64383f5d0302b60205b6218401b8e619b4d94d639a6391610d519190815260200190565b60405180910390a1565b610d636119d0565b610d6d6000611a2a565b565b6002546000906001600160a01b037f00000000000000000000000000000000000000000000000000000000000000008116916323b872dd91339116610db786620f42406119c4565b6040516001600160e01b031960e086901b1681526001600160a01b03938416600482015292909116602483015260448201526064016020604051808303816000875af1158015610e0b573d6000803e3d6000fd5b505050506040513d601f19601f82011682018060405250810190610e2f9190611efc565b9050600181151514610e9c5760405162461bcd60e51b815260206004820152603060248201527f596f752073686f756c6420617070726f7665206669727374206265666f72652060448201526f62757920446573757020546f6b656e7360801b6064820152608401610758565b6000610ea73361124a565b336000908152600760209081526040918290208251606081019093524283526005549394509290820190610edf9061ffff1687611f1e565b81526000602091820181905283546001818101865594825290829020835160039092020190815590820151928101929092556040015160029091015580610f79576008805460018082019092557ff3f7a9fe364faab93b216da50a3214154f22a0a2b415b23a84c8169e8b636ee30180546001600160a01b03191633908117909155600090815260076020526040902001805460ff191690555b6005547f7715cc454432439d8c37c24c4a327f21271d68c39f16d95320a3c5ca6eeee6a1903390610fae9061ffff1686611f1e565b604080516001600160a01b0390931683526020830191909152015b60405180910390a1505050565b610fde6119d0565b6002546001600160a01b031633146110385760405162461bcd60e51b815260206004820152601f60248201527f4f6e6c792061646d696e2063616e2073657420746865207363686564756c65006044820152606401610758565b6040518060400160405280838152602001828152506006600085600281111561106357611063611b81565b600281111561107457611074611b81565b815260200190815260200160002060008201518160000155602082015181600101559050507f59b1111b11a3de07cd58f3755b91b6a6a979834ad97dfcfa5da1f90dc3716efa838383604051610fc993929190611f40565b6110d46119d0565b6005805464ff00000000191664010000000060ff8416908102919091179091556040519081527f7a505d232a81e27558896ba39d646c77673fdc70a01e6c661b1893e2aefa3cb290602001610ca7565b600080600360009054906101000a90046001600160a01b03166001600160a01b031663feaf968c6040518163ffffffff1660e01b815260040160a060405180830381865afa15801561117a573d6000803e3d6000fd5b505050506040513d601f19601f8201168201806040525081019061119e9190611f79565b509195945050505050565b6111b16119d0565b6002546040516000916001600160a01b03169047908381818185875af1925050503d80600081146111fe576040519150601f19603f3d011682016040523d82523d6000602084013e611203565b606091505b50509050806112475760405162461bcd60e51b815260206004820152601060248201526f5472616e73666572206661696c65642160801b6044820152606401610758565b50565b600080805b60085481101561070957836001600160a01b03166008828154811061127657611276611d80565b6000918252602090912001546001600160a01b0316141561129a5760019150610709565b806112a481611fc9565b91505061124f565b60006107a4670de0b6b3a76400006108e7846112c6611124565b906119c4565b60006112d73361124a565b33600090815260076020908152604091829020825160608101909352428352600554939450929082019061131090349061ffff166108ab565b815260006020918201819052835460018181018655948252908290208351600390920201908155908201519281019290925560400151600290910155806113aa576008805460018082019092557ff3f7a9fe364faab93b216da50a3214154f22a0a2b415b23a84c8169e8b636ee30180546001600160a01b03191633908117909155600090815260076020526040902001805460ff191690555b6005547f16f8f2e391bb58fa918c4d87bb14fa646f193bae5ebbb3d730e2f9feefd9f1039033906113e090349061ffff166108ab565b604080516001600160a01b039093168352602083019190915201610ca7565b6008818154811061140f57600080fd5b6000918252602090912001546001600160a01b0316905081565b600354600090600160a01b900460ff166114855760405162461bcd60e51b815260206004820152601a60248201527f546f6b656e206973206e6f74207075626c6973686564207965740000000000006044820152606401610758565b61148e83611a7a565b6114da5760405162461bcd60e51b815260206004820152601f60248201527f56657374696e67205363686564756c65206973206e6f742073657420796574006044820152606401610758565b6000600454426114ea9190611fe4565b6001600160a01b03851660009081526007602052604081208054929350909161ffff861690811061151d5761151d611d80565b90600052602060002090600302016000015490506004548110611547576115448142611fe4565b91505b6001600160a01b0385166000908152600760205260408120600101546006919060ff16600281111561157b5761157b611b81565b600281111561158c5761158c611b81565b81526020019081526020016000206000015482106115ed576001600160a01b0385166000908152600760205260409020805461ffff86169081106115d2576115d2611d80565b906000526020600020906003020160010154925050506107a4565b6001600160a01b0385166000908152600760205260408120600101546116b790600690839060ff16600281111561162657611626611b81565b600281111561163757611637611b81565b815260208082019290925260409081016000908120546001600160a01b038b168252600790935290812060010154869160069160ff16600281111561167e5761167e611b81565b600281111561168f5761168f611b81565b81526020019081526020016000206001015460646116ad9190611fe4565b6108e79190611ffb565b6001600160a01b0387166000908152600760205260408120600101546006919060ff1660028111156116eb576116eb611b81565b60028111156116fc576116fc611b81565b8152602001908152602001600020600101546117189190611dac565b9050600061177b606483600760008b6001600160a01b03166001600160a01b031681526020019081526020016000206000018961ffff168154811061175f5761175f611d80565b9060005260206000209060030201600101546108e79190611ffb565b979650505050505050565b61178e6119d0565b6001600160a01b0381166117f35760405162461bcd60e51b815260206004820152602660248201527f4f776e61626c653a206e6577206f776e657220697320746865207a65726f206160448201526564647265737360d01b6064820152608401610758565b61124781611a2a565b600354606090600160a01b900460ff166118585760405162461bcd60e51b815260206004820152601a60248201527f546f6b656e206973206e6f74207075626c6973686564207965740000000000006044820152606401610758565b61186182611a7a565b6118ad5760405162461bcd60e51b815260206004820152601f60248201527f56657374696e67205363686564756c65206973206e6f742073657420796574006044820152606401610758565b6001600160a01b03821660009081526007602052604081205467ffffffffffffffff8111156118de576118de61201a565b604051908082528060200260200182016040528015611907578160200160208202803683370190505b50905060005b6001600160a01b03841660009081526007602052604090205461ffff82161015610709576001600160a01b0384166000908152600760205260409020805461ffff831690811061195f5761195f611d80565b90600052602060002090600302016002015461197b8583611429565b6119859190611fe4565b828261ffff168151811061199b5761199b611d80565b6020908102919091010152806119b081611dc4565b91505061190d565b60006108ed8284611f1e565b60006108ed8284611ffb565b6000546001600160a01b03163314610d6d5760405162461bcd60e51b815260206004820181905260248201527f4f776e61626c653a2063616c6c6572206973206e6f7420746865206f776e65726044820152606401610758565b600080546001600160a01b038381166001600160a01b0319831681178455604051919092169283917f8be0079c531659141344cd1fd0a4f28419497f9722a3daafe3b4186f6b6457e09190a35050565b6001600160a01b038116600090815260076020526040812060010154600690829060ff166002811115611aaf57611aaf611b81565b6002811115611ac057611ac0611b81565b8152602081019190915260400160002054151580611b3557506001600160a01b0382166000908152600760205260408120600101546006919060ff166002811115611b0d57611b0d611b81565b6002811115611b1e57611b1e611b81565b815260200190815260200160002060010154600014155b15611b4257506001919050565b506000919050565b80356001600160a01b0381168114611b6157600080fd5b919050565b600060208284031215611b7857600080fd5b6108ed82611b4a565b634e487b7160e01b600052602160045260246000fd5b60038110611bb557634e487b7160e01b600052602160045260246000fd5b9052565b602081016107a48284611b97565b803561ffff81168114611b6157600080fd5b60008060408385031215611bec57600080fd5b611bf583611b4a565b9150611c0360208401611bc7565b90509250929050565b60008060408385031215611c1f57600080fd5b82359150611c0360208401611bc7565b803560038110611b6157600080fd5b600060208284031215611c5057600080fd5b6108ed82611c2f565b602080825282518282018190526000919060409081850190868401855b82811015611ca55781518051855286810151878601528501518585015260609093019290850190600101611c76565b5091979650505050505050565b600060208284031215611cc457600080fd5b6108ed82611bc7565b600060208284031215611cdf57600080fd5b5035919050565b600080600060608486031215611cfb57600080fd5b611d0484611c2f565b95602085013595506040909401359392505050565b600060208284031215611d2b57600080fd5b813560ff811681146108ed57600080fd5b6020808252825182820181905260009190848201906040850190845b81811015611d7457835183529284019291840191600101611d58565b50909695505050505050565b634e487b7160e01b600052603260045260246000fd5b634e487b7160e01b600052601160045260246000fd5b60008219821115611dbf57611dbf611d96565b500190565b600061ffff80831681811415611ddc57611ddc611d96565b6001019392505050565b600060ff821660ff841680821015611e0057611e00611d96565b90039392505050565b600181815b80851115611e44578160001904821115611e2a57611e2a611d96565b80851615611e3757918102915b93841c9390800290611e0e565b509250929050565b600082611e5b575060016107a4565b81611e68575060006107a4565b8160018114611e7e5760028114611e8857611ea4565b60019150506107a4565b60ff841115611e9957611e99611d96565b50506001821b6107a4565b5060208310610133831016604e8410600b8410161715611ec7575081810a6107a4565b611ed18383611e09565b8060001904821115611ee557611ee5611d96565b029392505050565b60006108ed60ff841683611e4c565b600060208284031215611f0e57600080fd5b815180151581146108ed57600080fd5b600082611f3b57634e487b7160e01b600052601260045260246000fd5b500490565b60608101611f4e8286611b97565b602082019390935260400152919050565b805169ffffffffffffffffffff81168114611b6157600080fd5b600080600080600060a08688031215611f9157600080fd5b611f9a86611f5f565b9450602086015193506040860151925060608601519150611fbd60808701611f5f565b90509295509295909350565b6000600019821415611fdd57611fdd611d96565b5060010190565b600082821015611ff657611ff6611d96565b500390565b600081600019048311821515161561201557612015611d96565b500290565b634e487b7160e01b600052604160045260246000fdfea2646970667358221220b786e096ce5402dc8216d5d3bda2c4281e2a1753410968004145947ac8b2050964736f6c634300080b0033",
  "linkReferences": {},
  "deployedLinkReferences": {}
}