{
  "_format": "hh-sol-artifact-1",
  "contractName": "MockDesupTokenVesting",
  "sourceName": "contracts/MockDesupTokenVesting.sol",
  "abi": [
    {
      "inputs": [
        {
          "internalType": "address",
          "name": "token_",
          "type": "address"
        }
      ],
      "stateMutability": "nonpayable",
      "type": "constructor"
    },
    {
      "anonymous": false,
      "inputs": [
        {
          "indexed": false,
          "internalType": "address",
          "name": "investor",
          "type": "address"
        },
        {
          "indexed": false,
          "internalType": "uint256",
          "name": "amount",
          "type": "uint256"
        }
      ],
      "name": "InvestWithEther",
      "type": "event"
    },
    {
      "anonymous": false,
      "inputs": [
        {
          "indexed": false,
          "internalType": "address",
          "name": "investor",
          "type": "address"
        },
        {
          "indexed": false,
          "internalType": "uint256",
          "name": "amount",
          "type": "uint256"
        }
      ],
      "name": "InvestWithUSDT",
      "type": "event"
    },
    {
      "anonymous": false,
      "inputs": [
        {
          "indexed": true,
          "internalType": "address",
          "name": "previousOwner",
          "type": "address"
        },
        {
          "indexed": true,
          "internalType": "address",
          "name": "newOwner",
          "type": "address"
        }
      ],
      "name": "OwnershipTransferred",
      "type": "event"
    },
    {
      "anonymous": false,
      "inputs": [
        {
          "indexed": false,
          "internalType": "uint256",
          "name": "published_epoch",
          "type": "uint256"
        }
      ],
      "name": "PublishToken",
      "type": "event"
    },
    {
      "anonymous": false,
      "inputs": [
        {
          "indexed": false,
          "internalType": "uint16",
          "name": "decimal",
          "type": "uint16"
        }
      ],
      "name": "SetPriceDecimal",
      "type": "event"
    },
    {
      "anonymous": false,
      "inputs": [
        {
          "indexed": false,
          "internalType": "uint16",
          "name": "price",
          "type": "uint16"
        }
      ],
      "name": "SetTokenPriceForPublic",
      "type": "event"
    },
    {
      "anonymous": false,
      "inputs": [
        {
          "indexed": false,
          "internalType": "uint16",
          "name": "price",
          "type": "uint16"
        }
      ],
      "name": "SetTokenPriceForSeedA",
      "type": "event"
    },
    {
      "anonymous": false,
      "inputs": [
        {
          "indexed": false,
          "internalType": "enum DesupTokenVesting.HOLDERTYPE",
          "name": "role",
          "type": "uint8"
        },
        {
          "indexed": false,
          "internalType": "uint256",
          "name": "_duration",
          "type": "uint256"
        },
        {
          "indexed": false,
          "internalType": "uint256",
          "name": "_percentage",
          "type": "uint256"
        }
      ],
      "name": "SetVestingSchedule",
      "type": "event"
    },
    {
      "anonymous": false,
      "inputs": [
        {
          "indexed": false,
          "internalType": "address",
          "name": "holder",
          "type": "address"
        },
        {
          "indexed": false,
          "internalType": "uint256",
          "name": "amount",
          "type": "uint256"
        }
      ],
      "name": "Withdraw",
      "type": "event"
    },
    {
      "inputs": [],
      "name": "TokenUSDT",
      "outputs": [
        {
          "internalType": "contract IERC20",
          "name": "",
          "type": "address"
        }
      ],
      "stateMutability": "view",
      "type": "function"
    },
    {
      "inputs": [
        {
          "internalType": "address",
          "name": "holder_address",
          "type": "address"
        },
        {
          "internalType": "uint16",
          "name": "index",
          "type": "uint16"
        }
      ],
      "name": "getAllowedAmount",
      "outputs": [
        {
          "internalType": "uint256",
          "name": "",
          "type": "uint256"
        }
      ],
      "stateMutability": "view",
      "type": "function"
    },
    {
      "inputs": [
        {
          "internalType": "uint256",
          "name": "amount",
          "type": "uint256"
        },
        {
          "internalType": "uint16",
          "name": "token_price",
          "type": "uint16"
        }
      ],
      "name": "getDesupTokenAmount",
      "outputs": [
        {
          "internalType": "uint256",
          "name": "",
          "type": "uint256"
        }
      ],
      "stateMutability": "view",
      "type": "function"
    },
    {
      "inputs": [
        {
          "internalType": "address",
          "name": "holder_address",
          "type": "address"
        }
      ],
      "name": "getInvestorHistory",
      "outputs": [
        {
          "components": [
            {
              "internalType": "uint256",
              "name": "purchase_date",
              "type": "uint256"
            },
            {
              "internalType": "uint256",
              "name": "purchased_amount",
              "type": "uint256"
            },
            {
              "internalType": "uint256",
              "name": "withdrawed_amount",
              "type": "uint256"
            }
          ],
          "internalType": "struct DesupTokenVesting.History[]",
          "name": "",
          "type": "tuple[]"
        }
      ],
      "stateMutability": "view",
      "type": "function"
    },
    {
      "inputs": [],
      "name": "getLatestPrice",
      "outputs": [
        {
          "internalType": "uint256",
          "name": "",
          "type": "uint256"
        }
      ],
      "stateMutability": "view",
      "type": "function"
    },
    {
      "inputs": [
        {
          "internalType": "address",
          "name": "holder_address",
          "type": "address"
        }
      ],
      "name": "getTotalAmount",
      "outputs": [
        {
          "internalType": "uint256",
          "name": "",
          "type": "uint256"
        }
      ],
      "stateMutability": "view",
      "type": "function"
    },
    {
      "inputs": [],
      "name": "getTotalMintedDesupTokenAmount",
      "outputs": [
        {
          "internalType": "uint256",
          "name": "",
          "type": "uint256"
        }
      ],
      "stateMutability": "view",
      "type": "function"
    },
    {
      "inputs": [
        {
          "internalType": "uint256",
          "name": "amount",
          "type": "uint256"
        }
      ],
      "name": "getUSDFromEther",
      "outputs": [
        {
          "internalType": "uint256",
          "name": "",
          "type": "uint256"
        }
      ],
      "stateMutability": "view",
      "type": "function"
    },
    {
      "inputs": [
        {
          "internalType": "enum DesupTokenVesting.HOLDERTYPE",
          "name": "role",
          "type": "uint8"
        }
      ],
      "name": "getVestingSchedule",
      "outputs": [
        {
          "components": [
            {
              "internalType": "uint256",
              "name": "duration",
              "type": "uint256"
            },
            {
              "internalType": "uint256",
              "name": "init_percentage",
              "type": "uint256"
            }
          ],
          "internalType": "struct DesupTokenVesting.VestingSchedule",
          "name": "",
          "type": "tuple"
        }
      ],
      "stateMutability": "view",
      "type": "function"
    },
    {
      "inputs": [
        {
          "internalType": "address",
          "name": "holder_address",
          "type": "address"
        }
      ],
      "name": "getWithdrawableAmount",
      "outputs": [
        {
          "internalType": "uint256[]",
          "name": "withdrawble_amount",
          "type": "uint256[]"
        }
      ],
      "stateMutability": "view",
      "type": "function"
    },
    {
      "inputs": [
        {
          "internalType": "address",
          "name": "holder_address",
          "type": "address"
        },
        {
          "internalType": "uint16",
          "name": "index",
          "type": "uint16"
        }
      ],
      "name": "getWithdrawedAmount",
      "outputs": [
        {
          "internalType": "uint256",
          "name": "",
          "type": "uint256"
        }
      ],
      "stateMutability": "view",
      "type": "function"
    },
    {
      "inputs": [],
      "name": "harvestAll",
      "outputs": [],
      "stateMutability": "nonpayable",
      "type": "function"
    },
    {
      "inputs": [
        {
          "internalType": "uint256",
          "name": "",
          "type": "uint256"
        }
      ],
      "name": "holder_lists",
      "outputs": [
        {
          "internalType": "address",
          "name": "",
          "type": "address"
        }
      ],
      "stateMutability": "view",
      "type": "function"
    },
    {
      "inputs": [
        {
          "internalType": "address",
          "name": "",
          "type": "address"
        }
      ],
      "name": "holders",
      "outputs": [
        {
          "internalType": "enum DesupTokenVesting.HOLDERTYPE",
          "name": "role",
          "type": "uint8"
        }
      ],
      "stateMutability": "view",
      "type": "function"
    },
    {
      "inputs": [],
      "name": "investWithEther",
      "outputs": [],
      "stateMutability": "payable",
      "type": "function"
    },
    {
      "inputs": [
        {
          "internalType": "uint256",
          "name": "amount",
          "type": "uint256"
        }
      ],
      "name": "investWithUSDT",
      "outputs": [],
      "stateMutability": "nonpayable",
      "type": "function"
    },
    {
      "inputs": [
        {
          "internalType": "address",
          "name": "holder",
          "type": "address"
        }
      ],
      "name": "isInHolderlists",
      "outputs": [
        {
          "internalType": "bool",
          "name": "",
          "type": "bool"
        }
      ],
      "stateMutability": "view",
      "type": "function"
    },
    {
      "inputs": [
        {
          "internalType": "uint256",
          "name": "timespan",
          "type": "uint256"
        }
      ],
      "name": "movePublishedDateBack",
      "outputs": [],
      "stateMutability": "nonpayable",
      "type": "function"
    },
    {
      "inputs": [],
      "name": "owner",
      "outputs": [
        {
          "internalType": "address",
          "name": "",
          "type": "address"
        }
      ],
      "stateMutability": "view",
      "type": "function"
    },
    {
      "inputs": [],
      "name": "price_decimal",
      "outputs": [
        {
          "internalType": "uint8",
          "name": "",
          "type": "uint8"
        }
      ],
      "stateMutability": "view",
      "type": "function"
    },
    {
      "inputs": [],
      "name": "publishToken",
      "outputs": [],
      "stateMutability": "nonpayable",
      "type": "function"
    },
    {
      "inputs": [],
      "name": "published_date",
      "outputs": [
        {
          "internalType": "uint256",
          "name": "",
          "type": "uint256"
        }
      ],
      "stateMutability": "view",
      "type": "function"
    },
    {
      "inputs": [],
      "name": "renounceOwnership",
      "outputs": [],
      "stateMutability": "nonpayable",
      "type": "function"
    },
    {
      "inputs": [
        {
          "internalType": "uint8",
          "name": "decimal",
          "type": "uint8"
        }
      ],
      "name": "setPriceDecimal",
      "outputs": [],
      "stateMutability": "nonpayable",
      "type": "function"
    },
    {
      "inputs": [
        {
          "internalType": "uint16",
          "name": "price",
          "type": "uint16"
        }
      ],
      "name": "setTokenPriceForPublic",
      "outputs": [],
      "stateMutability": "nonpayable",
      "type": "function"
    },
    {
      "inputs": [
        {
          "internalType": "uint16",
          "name": "price",
          "type": "uint16"
        }
      ],
      "name": "setTokenPriceForSeedA",
      "outputs": [],
      "stateMutability": "nonpayable",
      "type": "function"
    },
    {
      "inputs": [
        {
          "internalType": "enum DesupTokenVesting.HOLDERTYPE",
          "name": "role",
          "type": "uint8"
        },
        {
          "internalType": "uint256",
          "name": "_duration",
          "type": "uint256"
        },
        {
          "internalType": "uint256",
          "name": "_percentage",
          "type": "uint256"
        }
      ],
      "name": "setVestingSchedule",
      "outputs": [],
      "stateMutability": "nonpayable",
      "type": "function"
    },
    {
      "inputs": [],
      "name": "token_price_for_public",
      "outputs": [
        {
          "internalType": "uint16",
          "name": "",
          "type": "uint16"
        }
      ],
      "stateMutability": "view",
      "type": "function"
    },
    {
      "inputs": [],
      "name": "token_price_for_seedA",
      "outputs": [
        {
          "internalType": "uint16",
          "name": "",
          "type": "uint16"
        }
      ],
      "stateMutability": "view",
      "type": "function"
    },
    {
      "inputs": [],
      "name": "token_published",
      "outputs": [
        {
          "internalType": "bool",
          "name": "",
          "type": "bool"
        }
      ],
      "stateMutability": "view",
      "type": "function"
    },
    {
      "inputs": [
        {
          "internalType": "address",
          "name": "newOwner",
          "type": "address"
        }
      ],
      "name": "transferOwnership",
      "outputs": [],
      "stateMutability": "nonpayable",
      "type": "function"
    },
    {
      "inputs": [
        {
          "internalType": "enum DesupTokenVesting.HOLDERTYPE",
          "name": "",
          "type": "uint8"
        }
      ],
      "name": "vesting_schedules",
      "outputs": [
        {
          "internalType": "uint256",
          "name": "duration",
          "type": "uint256"
        },
        {
          "internalType": "uint256",
          "name": "init_percentage",
          "type": "uint256"
        }
      ],
      "stateMutability": "view",
      "type": "function"
    },
    {
      "inputs": [
        {
          "internalType": "uint256",
          "name": "amount",
          "type": "uint256"
        },
        {
          "internalType": "uint16",
          "name": "index",
          "type": "uint16"
        }
      ],
      "name": "withdraw",
      "outputs": [],
      "stateMutability": "nonpayable",
      "type": "function"
    }
  ],
  "bytecode": "0x60c06040523480156200001157600080fd5b506040516200223838038062002238833981016040819052620000349162000126565b806200004033620000d6565b600180556001600160a01b0381166200005857600080fd5b600380546001600160a01b0390921660805273dac17f958d2ee523a2206206994597c13d831ec760a0526001600160a81b031990911673d4a33860578de61dbabdc8bfdb98fd742fa7028e17905550600580546406177008ca64ffffffffff19909116179055600280546001600160a01b0319163317905562000158565b600080546001600160a01b038381166001600160a01b0319831681178455604051919092169283917f8be0079c531659141344cd1fd0a4f28419497f9722a3daafe3b4186f6b6457e09190a35050565b6000602082840312156200013957600080fd5b81516001600160a01b03811681146200015157600080fd5b9392505050565b60805160a0516120b362000185600039600081816102ad0152610dcc01526000610b3f01526120b36000f3fe6080604052600436106101ee5760003560e01c80638251e3c21161010d5780639f194af1116100a0578063d53dfc371161006f578063d53dfc37146105d5578063d8b4a5a3146105f5578063e1658e7214610615578063f2fde38b1461065e578063f67771751461067e57600080fd5b80639f194af1146105585780639facbdf514610579578063a6d8cc2614610599578063c0f310de146105cd57600080fd5b80638e15f473116100dc5780638e15f473146104dd5780638ed955b9146104f25780639b4a7bb7146105075780639b9f0ef41461053857600080fd5b80638251e3c21461045f57806384aac4091461047f57806387dc9f281461049f5780638da5cb5b146104bf57600080fd5b806351b27c8511610185578063656774551161015457806365677455146103f55780637119f09814610415578063715018a61461042a578063771e79871461043f57600080fd5b806351b27c851461036f578063586b0e22146103915780635f7e219a146103b157806363b71039146103df57600080fd5b806332f1be29116101c157806332f1be291461029b57806336a6da1f146102e757806337e3a5b2146103075780634d823d5e1461034257600080fd5b80630e13b9bd146101f357806318a5bbdc1461022657806326dce35c146102665780632c03c7d714610286575b600080fd5b3480156101ff57600080fd5b5061021361020e366004611bb3565b6106ab565b6040519081526020015b60405180910390f35b34801561023257600080fd5b50610259610241366004611bb3565b60076020526000908152604090206001015460ff1681565b60405161021d9190611c06565b34801561027257600080fd5b50610213610281366004611c26565b61073b565b34801561029257600080fd5b506102136107d5565b3480156102a757600080fd5b506102cf7f000000000000000000000000000000000000000000000000000000000000000081565b6040516001600160a01b03909116815260200161021d565b3480156102f357600080fd5b50610213610302366004611c59565b6108d6565b34801561031357600080fd5b50610327610322366004611c8b565b61091f565b6040805182518152602092830151928101929092520161021d565b34801561034e57600080fd5b5061036261035d366004611bb3565b61098e565b60405161021d9190611ca6565b34801561037b57600080fd5b5061038f61038a366004611c59565b610a68565b005b34801561039d57600080fd5b5061038f6103ac366004611cff565b610c80565b3480156103bd57600080fd5b506005546103cc9061ffff1681565b60405161ffff909116815260200161021d565b3480156103eb57600080fd5b5061021360045481565b34801561040157600080fd5b5061038f610410366004611cff565b610cdd565b34801561042157600080fd5b5061038f610d29565b34801561043657600080fd5b5061038f610d86565b34801561044b57600080fd5b5061038f61045a366004611d1a565b610d9a565b34801561046b57600080fd5b5061038f61047a366004611d1a565b610dbc565b34801561048b57600080fd5b5061038f61049a366004611d33565b611023565b3480156104ab57600080fd5b5061038f6104ba366004611d66565b611119565b3480156104cb57600080fd5b506000546001600160a01b03166102cf565b3480156104e957600080fd5b50610213611171565b3480156104fe57600080fd5b5061038f6111f6565b34801561051357600080fd5b5060035461052890600160a01b900460ff1681565b604051901515815260200161021d565b34801561054457600080fd5b50610528610553366004611bb3565b611297565b34801561056457600080fd5b506005546103cc9062010000900461ffff1681565b34801561058557600080fd5b50610213610594366004611d1a565b6112f9565b3480156105a557600080fd5b506005546105bb90640100000000900460ff1681565b60405160ff909116815260200161021d565b61038f611319565b3480156105e157600080fd5b506102cf6105f0366004611d1a565b61144c565b34801561060157600080fd5b50610213610610366004611c26565b611476565b34801561062157600080fd5b50610649610630366004611c8b565b6006602052600090815260409020805460019091015482565b6040805192835260208301919091520161021d565b34801561066a57600080fd5b5061038f610679366004611bb3565b6117d3565b34801561068a57600080fd5b5061069e610699366004611bb3565b611849565b60405161021d9190611d89565b60008060005b6001600160a01b03841660009081526007602052604090205461ffff82161015610734576001600160a01b0384166000908152600760205260409020805461ffff831690811061070357610703611dcd565b906000526020600020906003020160000154826107209190611df9565b91508061072c81611e11565b9150506106b1565b5092915050565b600061074683611297565b61078c5760405162461bcd60e51b81526020600482015260126024820152712737ba1030903a37b5b2b7103437b63232b960711b60448201526064015b60405180910390fd5b6001600160a01b0383166000908152600760205260409020805461ffff84169081106107ba576107ba611dcd565b90600052602060002090600302016002015490505b92915050565b60008060005b60085461ffff821610156108d05760005b6007600060088461ffff168154811061080757610807611dcd565b60009182526020808320909101546001600160a01b0316835282019290925260400190205461ffff821610156108bd576007600060088461ffff168154811061085257610852611dcd565b60009182526020808320909101546001600160a01b031683528201929092526040019020805461ffff831690811061088c5761088c611dcd565b906000526020600020906003020160010154836108a99190611df9565b9250806108b581611e11565b9150506107ec565b50806108c881611e11565b9150506107db565b50919050565b600554600090610918906108f690640100000000900460ff166008611e33565b61090190600a611f3a565b6109128461ffff16610912876112f9565b90611a05565b9392505050565b60408051808201909152600080825260208201526006600083600281111561094957610949611bce565b600281111561095a5761095a611bce565b8152602001908152602001600020604051806040016040529081600082015481526020016001820154815250509050919050565b606061099982611297565b6109da5760405162461bcd60e51b81526020600482015260126024820152712737ba1030903a37b5b2b7103437b63232b960711b6044820152606401610783565b6001600160a01b038216600090815260076020908152604080832080548251818502810185019093528083529193909284015b82821015610a5d5783829060005260206000209060030201604051806060016040529081600082015481526020016001820154815260200160028201548152505081526020019060010190610a0d565b505050509050919050565b6000610a7333611297565b905080610ac25760405162461bcd60e51b815260206004820152601960248201527f4f6e6c7920686f6c646572732063616e207769746864726177000000000000006044820152606401610783565b6000610acd33611849565b8361ffff1681518110610ae257610ae2611dcd565b6020026020010151905080841115610b325760405162461bcd60e51b81526020600482015260136024820152722bb4ba34323930bb903634b6b4ba30ba34b7b760691b6044820152606401610783565b6002546001600160a01b037f00000000000000000000000000000000000000000000000000000000000000008116916323b872dd911633610b7b88670de0b6b3a7640000611a11565b6040516001600160e01b031960e086901b1681526001600160a01b03938416600482015292909116602483015260448201526064016020604051808303816000875af1158015610bcf573d6000803e3d6000fd5b505050506040513d601f19601f82011682018060405250810190610bf39190611f49565b50336000908152600760205260409020805485919061ffff8616908110610c1c57610c1c611dcd565b90600052602060002090600302016002016000828254610c3c9190611df9565b909155505060408051338152602081018690527f884edad9ce6fa2440d8a54cc123490eb96d2768479d49ff9c7366125a9424364910160405180910390a150505050565b610c88611a1d565b6005805463ffff000019166201000061ffff8416908102919091179091556040519081527f892e017da0a1ce5499f80898ce472d68bcada9d103674edba28d5faa5e69357f906020015b60405180910390a150565b610ce5611a1d565b6005805461ffff191661ffff83169081179091556040519081527fa3a56ab461f72ca2f638c114e51432b8b04c9c48f4033d551ece6255749792a690602001610cd2565b610d31611a1d565b4260048190556003805460ff60a01b1916600160a01b1790556040517f7ad7b61f410a38223b0b64383f5d0302b60205b6218401b8e619b4d94d639a6391610d7c9190815260200190565b60405180910390a1565b610d8e611a1d565b610d986000611a77565b565b610da2611a1d565b8060046000828254610db49190611f6b565b909155505050565b6002546000906001600160a01b037f00000000000000000000000000000000000000000000000000000000000000008116916323b872dd91339116610e0486620f4240611a11565b6040516001600160e01b031960e086901b1681526001600160a01b03938416600482015292909116602483015260448201526064016020604051808303816000875af1158015610e58573d6000803e3d6000fd5b505050506040513d601f19601f82011682018060405250810190610e7c9190611f49565b9050600181151514610ee95760405162461bcd60e51b815260206004820152603060248201527f596f752073686f756c6420617070726f7665206669727374206265666f72652060448201526f62757920446573757020546f6b656e7360801b6064820152608401610783565b6000610ef433611297565b336000908152600760209081526040918290208251606081019093524283526005549394509290820190610f2c9061ffff1687611f82565b81526000602091820181905283546001818101865594825290829020835160039092020190815590820151928101929092556040015160029091015580610fc6576008805460018082019092557ff3f7a9fe364faab93b216da50a3214154f22a0a2b415b23a84c8169e8b636ee30180546001600160a01b03191633908117909155600090815260076020526040902001805460ff191690555b6005547f7715cc454432439d8c37c24c4a327f21271d68c39f16d95320a3c5ca6eeee6a1903390610ffb9061ffff1686611f82565b604080516001600160a01b0390931683526020830191909152015b60405180910390a1505050565b61102b611a1d565b6002546001600160a01b031633146110855760405162461bcd60e51b815260206004820152601f60248201527f4f6e6c792061646d696e2063616e2073657420746865207363686564756c65006044820152606401610783565b604051806040016040528083815260200182815250600660008560028111156110b0576110b0611bce565b60028111156110c1576110c1611bce565b815260200190815260200160002060008201518160000155602082015181600101559050507f59b1111b11a3de07cd58f3755b91b6a6a979834ad97dfcfa5da1f90dc3716efa83838360405161101693929190611fa4565b611121611a1d565b6005805464ff00000000191664010000000060ff8416908102919091179091556040519081527f7a505d232a81e27558896ba39d646c77673fdc70a01e6c661b1893e2aefa3cb290602001610cd2565b600080600360009054906101000a90046001600160a01b03166001600160a01b031663feaf968c6040518163ffffffff1660e01b815260040160a060405180830381865afa1580156111c7573d6000803e3d6000fd5b505050506040513d601f19601f820116820180604052508101906111eb9190611fdd565b509195945050505050565b6111fe611a1d565b6002546040516000916001600160a01b03169047908381818185875af1925050503d806000811461124b576040519150601f19603f3d011682016040523d82523d6000602084013e611250565b606091505b50509050806112945760405162461bcd60e51b815260206004820152601060248201526f5472616e73666572206661696c65642160801b6044820152606401610783565b50565b600080805b60085481101561073457836001600160a01b0316600882815481106112c3576112c3611dcd565b6000918252602090912001546001600160a01b031614156112e75760019150610734565b806112f18161202d565b91505061129c565b60006107cf670de0b6b3a764000061091284611313611171565b90611a11565b600061132433611297565b33600090815260076020908152604091829020825160608101909352428352600554939450929082019061135d90349061ffff166108d6565b815260006020918201819052835460018181018655948252908290208351600390920201908155908201519281019290925560400151600290910155806113f7576008805460018082019092557ff3f7a9fe364faab93b216da50a3214154f22a0a2b415b23a84c8169e8b636ee30180546001600160a01b03191633908117909155600090815260076020526040902001805460ff191690555b6005547f16f8f2e391bb58fa918c4d87bb14fa646f193bae5ebbb3d730e2f9feefd9f10390339061142d90349061ffff166108d6565b604080516001600160a01b039093168352602083019190915201610cd2565b6008818154811061145c57600080fd5b6000918252602090912001546001600160a01b0316905081565b600354600090600160a01b900460ff166114d25760405162461bcd60e51b815260206004820152601a60248201527f546f6b656e206973206e6f74207075626c6973686564207965740000000000006044820152606401610783565b6114db83611ac7565b6115275760405162461bcd60e51b815260206004820152601f60248201527f56657374696e67205363686564756c65206973206e6f742073657420796574006044820152606401610783565b6000600454426115379190611f6b565b6001600160a01b03851660009081526007602052604081208054929350909161ffff861690811061156a5761156a611dcd565b90600052602060002090600302016000015490506004548110611594576115918142611f6b565b91505b6001600160a01b0385166000908152600760205260408120600101546006919060ff1660028111156115c8576115c8611bce565b60028111156115d9576115d9611bce565b815260200190815260200160002060000154821061163a576001600160a01b0385166000908152600760205260409020805461ffff861690811061161f5761161f611dcd565b906000526020600020906003020160010154925050506107cf565b6001600160a01b03851660009081526007602052604081206001015461170490600690839060ff16600281111561167357611673611bce565b600281111561168457611684611bce565b815260208082019290925260409081016000908120546001600160a01b038b168252600790935290812060010154869160069160ff1660028111156116cb576116cb611bce565b60028111156116dc576116dc611bce565b81526020019081526020016000206001015460646116fa9190611f6b565b6109129190612048565b6001600160a01b0387166000908152600760205260408120600101546006919060ff16600281111561173857611738611bce565b600281111561174957611749611bce565b8152602001908152602001600020600101546117659190611df9565b905060006117c8606483600760008b6001600160a01b03166001600160a01b031681526020019081526020016000206000018961ffff16815481106117ac576117ac611dcd565b9060005260206000209060030201600101546109129190612048565b979650505050505050565b6117db611a1d565b6001600160a01b0381166118405760405162461bcd60e51b815260206004820152602660248201527f4f776e61626c653a206e6577206f776e657220697320746865207a65726f206160448201526564647265737360d01b6064820152608401610783565b61129481611a77565b600354606090600160a01b900460ff166118a55760405162461bcd60e51b815260206004820152601a60248201527f546f6b656e206973206e6f74207075626c6973686564207965740000000000006044820152606401610783565b6118ae82611ac7565b6118fa5760405162461bcd60e51b815260206004820152601f60248201527f56657374696e67205363686564756c65206973206e6f742073657420796574006044820152606401610783565b6001600160a01b03821660009081526007602052604081205467ffffffffffffffff81111561192b5761192b612067565b604051908082528060200260200182016040528015611954578160200160208202803683370190505b50905060005b6001600160a01b03841660009081526007602052604090205461ffff82161015610734576001600160a01b0384166000908152600760205260409020805461ffff83169081106119ac576119ac611dcd565b9060005260206000209060030201600201546119c88583611476565b6119d29190611f6b565b828261ffff16815181106119e8576119e8611dcd565b6020908102919091010152806119fd81611e11565b91505061195a565b60006109188284611f82565b60006109188284612048565b6000546001600160a01b03163314610d985760405162461bcd60e51b815260206004820181905260248201527f4f776e61626c653a2063616c6c6572206973206e6f7420746865206f776e65726044820152606401610783565b600080546001600160a01b038381166001600160a01b0319831681178455604051919092169283917f8be0079c531659141344cd1fd0a4f28419497f9722a3daafe3b4186f6b6457e09190a35050565b6001600160a01b038116600090815260076020526040812060010154600690829060ff166002811115611afc57611afc611bce565b6002811115611b0d57611b0d611bce565b8152602081019190915260400160002054151580611b8257506001600160a01b0382166000908152600760205260408120600101546006919060ff166002811115611b5a57611b5a611bce565b6002811115611b6b57611b6b611bce565b815260200190815260200160002060010154600014155b15611b8f57506001919050565b506000919050565b80356001600160a01b0381168114611bae57600080fd5b919050565b600060208284031215611bc557600080fd5b61091882611b97565b634e487b7160e01b600052602160045260246000fd5b60038110611c0257634e487b7160e01b600052602160045260246000fd5b9052565b602081016107cf8284611be4565b803561ffff81168114611bae57600080fd5b60008060408385031215611c3957600080fd5b611c4283611b97565b9150611c5060208401611c14565b90509250929050565b60008060408385031215611c6c57600080fd5b82359150611c5060208401611c14565b803560038110611bae57600080fd5b600060208284031215611c9d57600080fd5b61091882611c7c565b602080825282518282018190526000919060409081850190868401855b82811015611cf25781518051855286810151878601528501518585015260609093019290850190600101611cc3565b5091979650505050505050565b600060208284031215611d1157600080fd5b61091882611c14565b600060208284031215611d2c57600080fd5b5035919050565b600080600060608486031215611d4857600080fd5b611d5184611c7c565b95602085013595506040909401359392505050565b600060208284031215611d7857600080fd5b813560ff8116811461091857600080fd5b6020808252825182820181905260009190848201906040850190845b81811015611dc157835183529284019291840191600101611da5565b50909695505050505050565b634e487b7160e01b600052603260045260246000fd5b634e487b7160e01b600052601160045260246000fd5b60008219821115611e0c57611e0c611de3565b500190565b600061ffff80831681811415611e2957611e29611de3565b6001019392505050565b600060ff821660ff841680821015611e4d57611e4d611de3565b90039392505050565b600181815b80851115611e91578160001904821115611e7757611e77611de3565b80851615611e8457918102915b93841c9390800290611e5b565b509250929050565b600082611ea8575060016107cf565b81611eb5575060006107cf565b8160018114611ecb5760028114611ed557611ef1565b60019150506107cf565b60ff841115611ee657611ee6611de3565b50506001821b6107cf565b5060208310610133831016604e8410600b8410161715611f14575081810a6107cf565b611f1e8383611e56565b8060001904821115611f3257611f32611de3565b029392505050565b600061091860ff841683611e99565b600060208284031215611f5b57600080fd5b8151801515811461091857600080fd5b600082821015611f7d57611f7d611de3565b500390565b600082611f9f57634e487b7160e01b600052601260045260246000fd5b500490565b60608101611fb28286611be4565b602082019390935260400152919050565b805169ffffffffffffffffffff81168114611bae57600080fd5b600080600080600060a08688031215611ff557600080fd5b611ffe86611fc3565b945060208601519350604086015192506060860151915061202160808701611fc3565b90509295509295909350565b600060001982141561204157612041611de3565b5060010190565b600081600019048311821515161561206257612062611de3565b500290565b634e487b7160e01b600052604160045260246000fdfea2646970667358221220844585f9f219503486f430175a19819840d684ba14991f275a8e4749f23cd76264736f6c634300080b0033",
  "linkReferences": {},
  "deployedLinkReferences": {}
}